:100000000C9434000C94CF000C9451000C945100CB
:100010000C9451000C9451000C9451000C9451001C
:100020000C9451000C9451000C9451000C9451000C
:100030000C9451000C9451000C9451000C945100FC
:100040000C9451000C9451000C9451000C945100EC
:100050000C9451000C9451000C9451000C945100DC
:100060000C9451000C94510011241FBECFEFD8E026
:10007000DEBFCDBF11E0A0E0B1E0E6E1F2E002C0FA
:1000800005900D92A030B107D9F721E0A0E0B1E0D2
:1000900001C01D92A731B207E1F70E9479000C94CC
:1000A00009010C94000087B187B9EAE7F0E080818C
:1000B000846080830895806480937C00EAE7F0E0A8
:1000C0008081806C8083808186FDFDCFEAE7F0E04F
:1000D00080818F778083809178002091790090E0F3
:1000E000922B0895E9E6F0E080818083E89A789485
:1000F00008950E94530080E096E90E94DE000E946D
:100100007200CAE0D1E06894BB24B7F8AA24A39493
:100110000E94F2008835E1F785E00E945B00909331
:1001200004018093030184E00E945B00909302012C
:100130008093010182E00E945B0080931401909300
:10014000150130910101209102013883022F10E046
:10015000012B11F0298301C0B98230910301209154
:1001600004013A83E22EF12CEF2811F02B8301C019
:10017000BB8222E02C838D83C92ED12CCD2811F097
:100180009E8301C0BE8280910001882321F08150AE
:1001900080930001AC82CE010E94FA00B9CF1F9279
:1001A0000F920FB60F9211248F9383E0809300017A
:1001B0008F910F900FBE0F901F9018951092C50051
:1001C0008CE08093C40088E18093C10086E0809336
:1001D000C2000895E0ECF0E0908195FFFDCF8093A0
:1001E000C6000895E0ECF0E080818823ECF7809170
:1001F000C6000895CF93DF93EC018881882331F006
:1002000021960E94EA0089918111FBCFDF91CF9165
:060210000895F894FFCFF1
:00000001FF
